:100000000C9412060C942F060C942F060C942F06B9
:100010000C942F060C942F060C942F060C942F068C
:100020000C942F060C942F060C942F060C9431067A
:100030000C942F060C942F060C942F060C942F066C
:100040000C942F060C942F060C9461190C942F0617
:100050000C942F060C942F060C942F060C942F064C
:100060000C942F060C942F06667265653A202020AA
:1000700000666F726D61743A200077722E70722E76
:100080003A2000636F70793A202020004D420A0028
:1000900073697A653A20202000646174653A2020F3
:1000A000200073657269616C3A2030780072657661
:1000B0003A202020200070726F643A202020006FC8
:1000C000656D3A20202020006D616E75663A202013
:1000D000307800000000000000005F000000070012
:1000E0000700147F147F14242A7F2A122313086424
:1000F0006236495522500005030000001C224100D1
:100100000041221C00082A1C2A0808083E08080092
:100110005030000008080808080060600000201047
:100120000804023E5149453E00427F400042615171
:1001300049462141454B311814127F10274545454A
:10014000393C4A4949300171090503364949493664
:10015000064949291E0036360000005636000000C8
:10016000081422411414141414412214080002012A
:10017000510906324979413E7E1111117E7F49496C
:1001800049363E414141227F4141221C7F49494934
:10019000417F090901013E414151327F0808087F32
:1001A00000417F41002040413F017F081422417FF0
:1001B000404040407F0204027F7F0408107F3E41A0
:1001C00041413E7F090909063E4151215E7F0919DF
:1001D0002946464949493101017F01013F404040DC
:1001E0003F1F2040201F7F2018207F6314081463C6
:1001F0000304780403615149454300007F414102F3
:100200000408102041417F00000402010204404024
:10021000404040000102040020545454787F484478
:1002200044383844444420384444487F3854545473
:1002300018087E090102081454543C7F080404780D
:1002400000447D40002040443D00007F10284400D1
:10025000417F40007C041804787C0804047838440A
:100260004444387C14141408081414187C7C0804C2
:1002700004084854545420043F4440203C4040204B
:100280007C1C2040201C3C4030403C44281028442A
:100290000C5050503C4464544C440008364100001B
:1002A000007F0000004136080008082A1C08081CCE
:1002B0002A080800E0F0380C0C0C0C38F8C00000DC
:1002C0001F7FE080808080E0FF1F000000000101B0
:1002D0000101010000000000101818FCFC000000E3
:1002E00000000000000000FFFF0000000000000010
:1002F000000000010100000000000000081C0C0CC0
:100300000C0C8CF8F0000000F0F89C8C868683833F
:100310008000000001010101010101010100000054
:10032000081C0C0C0C0C8CF8F000000080C08081C4
:100330008383C7FF7C00000000010101010101006F
:1003400000000000000080C07038FCFC00000000CD
:100350001C1E1B111810FFFF1018000000000000E9
:10036000000001010000000000F4FC1C0C0C0C0C4F
:100370000000000080C383838383C7FE78000000F1
:10038000000001010101010000000000C0F0781C24
:100390000C0C0C08000000003FFFC3838383C3FEE6
:1003A0007C000000000001010101010000000000CC
:1003B0000C0C0C0C8CCC7C3C0C0000000080F07C05
:1003C0000F03000000000000000101000000000019
:1003D00000000000F0F81C0C0C0C0CF8F000000001
:1003E000F8FF8F0706068FFFF800000000010303E7
:1003F0000303010100000000F0F81C0C0C0C1CF8B9
:10040000E000000001878E8C8C8CEE7F1F000000C6
:1004100000010101010100000000000000000000D7
:1004200000000000000000000000000000000000CC
:1004300000000000000000000000000000000000BC
:1004400000000000000000000000000000008080AC
:10045000C0C0C0E0E0E0E0E0E0E0E0E0E0E0E0E0FC
:10046000E0C0C0C08080000000000000000000006C
:10047000000000000000000000000000000000007C
:10048000000000000000000000000000000000006C
:10049000000000000000000000000000000000005C
:1004A000000000000000000000000000000000004C
:1004B000000000000000000000000000000000003C
:1004C0000000000080C0E0F0F8FCFCFEFFFFFFFF32
:1004D000FFFFFFFFFFFFFFFFFFFFFFFFFFFFFFFF2C
:1004E000FFFFFFFFFFFFFFFFFEFCFCF8F0E0C08016
:1004F00000000000000000000000000000000000FC
:1005000000000000000000000000000000000000EB
:1005100000000000000000000000000000000000DB
:1005200000000000000000000000000000000000CB
:1005300000000000000000000000000000000000BB
:1005400080F0FCFEFFFFFFFFFFFFFFFFFFFFFFFF4D
:10055000FFFFFFFFFFFFFFFFFFFFFFFFFFFFFFFFAB
:10056000FFFFFFFFFFFFFFFFFFFFFFFFFFFFFFFF9B
:10057000FEFCF0C0000000000000000000000000D1
:10058000000000000000000000000000000000006B
:10059000000000000000000000000000000000005B
:1005A000000000000000000000000000000000004B
:1005B000000000000000000000000000000000FC3F
:1005C000FFFFFFFFFFFFFFFFFFFFFFFFFFFFFFFF3B
:1005D000FFFF1F07030101000000000000000103EE
:1005E000071FFFFFFFFFFFFFFFFFFFFFFFFFFFFFF3
:1005F000FFFFFFFFFC000000000000000000000003
:1006000000000000000000000000000000000000EA
:1006100000000000000000000000000000000000DA
:1006200000000000000000000000000000000000CA
:100630000000000000000000000000000000001F9B
:10064000FFFFFFFFFFFFFFFFFFFFFFFFFFFFFFFFBA
:10065000FFFFFCF0E0C08080000000000080C0C010
:10066000F0FCFFFFFFFFFFFFFFFFFFFFFFFFFFFFAC
:10067000FFFFFFFF3F00000000000000000000003F
:10068000000000000000000000000000000000006A
:10069000000000000000000000000000000000005A
:1006A000000000000000000000000000000000004A
:1006B000000000000000000000000000000000003A
:1006C00001071F7FFFFFFFFFFFFFFFFFFFFFFFFF90
:1006D000FFFFFFFFFF7F0F0300000000010F3FFF40
:1006E000FFFFFFFFFFFFFFFFFFFFFFFFFFFFFFFF1A
:1006F0007F1F070100000000000000000000000054
:1007000000000000000000000000000000000000E9
:1007100000000000000000000000000000000000D9
:1007200000000000000000000000000000000000C9
:1007300000000000000000000000000000000000B9
:1007400000000000000103070F1F3F3F7FFFFFFF76
:10075000FFFF7F0F03000000000000000000000109
:100760000F3FFFFFFFFFFF7F7F3F1F0F07030100CA
:100770000000000000000000000000000000000079
:100780000000000000000000000000000000000069
:100790000000000000000000000000000000000059
:1007A0000000000000000000000000000000000049
:1007B0000000000000000000000000000000000039
:1007C0000000000000000000000000000000000029
:1007D0000101000000000000000000000000000017
:1007E0000000010101000000000000000000000006
:1007F00000000000000000000000000000000000F9
:1008000000000000000000000000000000000000E8
:1008100000000000000000000000000600000000D2
:10082000000000000F00000F00000F00000F00008C
:1008300000000000000000000000000000000000B8
:100840000000000000000000000700001E00E01F84
:1008500000FF1FF8FF03FF1F00FF01000F00000053
:100860000000000000000000000000000000000088
:10087000000000000000000E000000C07F00F8FF34
:1008800001FCFF07FCFF073E800F0E000E0E000E5E
:100890000E000E1E800FFCFF07FCFF07F8FF01C0D3
:1008A0007F000000000E00000070000E38000E38BF
:1008B000000E1C000E0E000EFEFF0FFEFF0FFEFFCF
:1008C0000FFEFF0F00000E00000E00000E00000ED5
:1008D0000000000E00000060000F78800F7CC00F49
:1008E0007CE00F1EF00F0EF80E0E7C0E0E3E0E1E5C
:1008F0001F0EFE0F0EFC070EF8030EF0010E000097
:10090000000E0000003080013880033C80073C80EE
:100910000F1E000F0E0E0E0E0E0E0E0E0E1E1F0FD1
:10092000FEFF0FFCFB07FCF903F0E0010000000FE5
:1009300000000000F00000F80000FE0080EF00C0A2
:10094000E700F0E1007CE0003EE000FEFF0FFEFF6C
:100950000FFEFF0FFEFF0F00E00000E0000E0000A2
:1009600000008001F88703FE8707FE870FFE070F50
:100970000E030E8E030E8E030E8E070F8EFF070ED4
:10098000FF070EFE0300FC000000000E000000C088
:100990007F00F0FF01F8FF07FCFF073E0E0F0E0778
:1009A0000E0E070E0E070E1E0F0F3EFF0F3CFE072A
:1009B00038FE0330F8010000000E0000000E0000B9
:1009C0000E00000E00000E000F0EE00F0EF80F0ECE
:1009D000FE0F8EFF00CE0F00FE0300FE00003E0063
:1009E000001E00000000000E000000F0E001F8FB17
:1009F00003FCFB07FEFF0F1E1F0F0E0E0E0E0E0E4A
:100A00000E0E0E1E1F0FFEFF0FFCFB07FCFB03F07C
:100A1000E0010000000E000000F08301F88703FCF5
:100A20008F07FE9F0F1E1E0F0E1C0E0E1C0E0E1C9F
:100A30000E1E8E0FFCFF07FCFF03F8FF01C07F00B6
:100A4000000000000000000000005F000000070040
:100A50000700147F147F14242A7F2A1223130864AA
:100A60006236495522500005030000001C22410057
:100A70000041221C00082A1C2A0808083E08080019
:100A800050300000080808080800606000002010CE
:100A90000804023E5149453E00427F4000426151F8
:100AA00049462141454B311814127F1027454545D1
:100AB000393C4A49493001710905033649494936EB
:100AC000064949291E00363600000056360000004F
:100AD00008142241141414141441221408000201B1
:100AE000510906324979413E7E1111117E7F4949F3
:100AF00049363E414141227F4141221C7F494949BB
:100B0000417F090901013E414151327F0808087FB8
:100B100000417F41002040413F017F081422417F76
:100B2000404040407F0204027F7F0408107F3E4126
:100B300041413E7F090909063E4151215E7F091965
:100B40002946464949493101017F01013F40404062
:100B50003F1F2040201F7F2018207F63140814634C
:100B60000304780403615149454300007F41410279
:100B70000408102041417F000004020102044040AB
:100B8000404040000102040020545454787F4844FF
:100B900044383844444420384444487F38545454FA
:100BA00018087E090102081454543C7F0804047894
:100BB00000447D40002040443D00007F1028440058
:100BC000417F40007C041804787C08040478384491
:100BD0004444387C14141408081414187C7C080449
:100BE00004084854545420043F4440203C404020D2
:100BF0007C1C2040201C3C4030403C4428102844B1
:100C00000C5050503C4464544C44000836410000A1
:100C1000007F0000004136080008082A1C08081C54
:100C20002A08080011241FBECFEFD8E0DEBFCDBFD9
:100C300011E0A0E0B1E0E0E7F8E602C005900D9217
:100C4000AA3BB107D9F727E0AAEBB1E001C01D929A
:100C5000A930B207E1F70E94ED2C0C9427340C94D4
:100C600000001F921FB61F9211248F939F938091B3
:100C7000DF048F5F8093DF049091EC04992319F0D7
:100C800091509093EC048A3039F48091EF041092E3
:100C9000DF048F5F8093EF048091EF048A3039F492
:100CA0008091F2041092EF048F5F8093F2048091A0
:100CB000F2048C3339F41092F2048091EE048F5FC9
:100CC0008093EE049F918F911F901FBE1F901895E7
:100CD000843508F083E5443508F043E5603308F0D7
:100CE0006FE2203308F02FE2E0910007F091010756
:100CF0009081891708F480838281841708F44283E5
:100D00008181681708F461838381821708F4238343
:100D10000895E0910007F091010783E58083128236
:100D20008FE28183138208950C948906E091000775
:100D3000F0910107108283E5828311828FE2838321
:100D40000895E091FE06F091FF0688EF91E0DF0143
:100D50009C011D9221503040E1F72FE243E560E015
:100D600080E00E9468060C944607E091FE06F09130
:100D7000FF0688EF91E0DF019C011D922150304079
:100D8000E1F72FE243E560E080E00C946806909381
:100D9000FF068093FE067093010760930007089595
:100DA000089524E530E080E044E5E091FE06F0910E
:100DB000FF068530B9F0D901A455B109AE0FBF1FA8
:100DC000E20FF31F94E501900D929A95E1F78F5F82
:100DD0002C5A3F4F863049F72FE243E560E080E030
:100DE0000C946806EC55FE4FDF01942F1D929A95E6
:100DF000E9F7EDCF209A239A209A259A209A219AF2
:100E0000579A289A80E58CBD1DBC0E94940762E029
:100E100075E086E095E00E94C7060C94A10628982C
:100E20008EBD0DB407FEFDCF289A089528985F98CF
:100E300080ED97E00197F1F75F9A289A0895299835
:100E40000C940F07299A0C940F07CF93C82F81E2B7
:100E50000E941F078C2F80680E941F0780E20E945B
:100E60001F078CE0CF910C941F070E94A10684E21B
:100E70000C941F0780E20C941F07863008F085E071
:100E800080640C941F0780680C941F07EF92FF92F8
:100E90000F931F93CF93DF93F12CE12C08E010E028
:100EA000C0E0E0910007F0910107818180171106F1
:100EB00084F0CF5F085F1F4F84E5E80EF11CC63059
:100EC00081F7DF91CF911F910F91FF90EF900C94DC
:100ED00089062381C80108972817190694F38C2FD7
:100EE00080640E941F07E0910007F0910107808154
:100EF00080680E941F07E0910007F0910107D081F0
:100F0000E0910007F091010782818D1790F2E09146
:100F1000FE06F091FF06EE0DFF1DED0FF11D808125
:100F20000E942207DF5FECCF0E94160781E20E9439
:100F30001F0782E10E941F078CEB0E941F0780E2BF
:100F40000E941F078CE00C941F07EF92FF920F93F3
:100F50001F93CF93DF93F82E162FC42FD22FE02E9E
:100F60002330A0F001E00E943D0C2EEF2D0FC25067
:100F7000CE9DC00111246FEF70E00E943030462FEB
:100F800061E0610F81E08F0D0E94F30BDF91CF9143
:100F90001F910F91FF90EF9008950F93382FE62F38
:100FA000233068F0409FC00111246FEF70E00E9471
:100FB0003030462F01E06E2F832F0E94F30B0F91EC
:100FC0000895EF92FF920F931F93CF93DF93E82E34
:100FD000D62FF42EC22F102F01E00E943D0CC250DC
:100FE00010951C9FC00111246FEF70E00E943030FB
:100FF0002C2F261B4EEF4F0DDF5F6D0F81E08E0D06
:101000000E94F30BDF91CF911F910F91FF90EF9012
:1010100008950F93E82F362F22500095029FC001AC
:1010200011246FEF70E00E943030261B630F01E047
:101030008E2F0E94F30B0F9108954F925F926F9243
:101040007F928F929F92AF92BF92CF92DF92EF9258
:10105000FF920F931F93CF93DF93982ED62FC42F19
:10106000722E602E01E00E943D0CEE24E394ED0E02
:10107000FE2C072D10E0680181E0C81AD1088C2FE2
:101080008150990B5C0155245394590C8F2D8D1B65
:101090008C151D040CF44DC0980123503109629E3B
:1010A000C001639E900D11246FEF70E00E943030FC
:1010B000025011096017110614F06DEF670DD70D7E
:1010C0001D2F161BC250C90D2EEF210F6EEF6D0F95
:1010D00001E04C2F8C2F0E94860B6DEF610F00E01A
:1010E0002E2D4C2F8C2F0E94860BDF91CF911F91BC
:1010F0000F91FF90EF90DF90CF90BF90AF909F90B7
:101100008F907F906F905F904F900C944607482C83
:10111000490C6F2D852D880D0E94430B482F6F2D94
:10112000842D0E941D0B83948A141B0484F3F39472
:10113000ADCF88248394F8CF8F929F92AF92BF92C5
:10114000CF92DF92EF92FF920F93CF93B82EA62EFD
:10115000942E822EC02FE11002C0EE24E394F12CD5
:101160000C2F282D492D6A2D8B2D0E941D08F394DC
:10117000EF10F6CFC114D10481F1B60190E080E008
:101180000E94E82E4B015C0120E030E04AEF54E47D
:101190000E94772F6B017C0120E030E040E85FE3A4
:1011A0000E94B42E87FD32C020E03FEF4FE757E4A6
:1011B000C701B6010E94722F181604F520E030E036
:1011C00040E251E4C501B4010E94772F0E94B92E7C
:1011D00028EC30E06115710559F4CF910F91FF9023
:1011E000EF90DF90CF90BF90AF909F908F90089539
:1011F000C9010197F1F761507109ECCFC701B60140
:101200000E94B92ECB010197F1F7E7CF61E070E0C2
:10121000F9CF0F93E2E0F7E0918380836283438309
:101220002483058381E086830F910895EF920F93C5
:10123000E2E0F7E091838083628343832483058324
:10124000E6820F91EF9008952F923F924F925F9216
:101250006F927F928F929F92AF92BF92CF92DF92C6
:10126000EF92FF920F931F93CF93DF93CDB7DEB72B
:1012700029970FB6F894DEBF0FBECDBF482E688702
:1012800020910607421720F080910707841708F481
:101290004EE2309108073983332309F49FC0598106
:1012A000513009F0F0C080910507982F96959695DA
:1012B00096959987877011F09F5F998780910407B1
:1012C000E985E89F802D11248F5F421B550B849F79
:1012D0008001859F100D1124E0910207F091030712
:1012E000E00FF11F54903985232F30E03C832B838E
:1012F0008F010F5F1F4FC42CD12C5885452F50E014
:101300005F834E83CA828C2D8419851508F04CC0EA
:101310005801912C812C1982AAC080910607A30143
:10132000481B5109549E8001559E100D112459816E
:10133000852E912C080D191DE0910207F0910307ED
:10134000E00FF11FE491F12CE12C8C0C9D1C0E2F71
:1013500010E084E5881691040CF02BC1C5018E0DB8
:101360009F1DC09708F025C168856E0DC8010E2C21
:1013700002C0959587950A94E2F741E080FF40E02E
:10138000842D0E941D0B9FEFE91AF90AE8E0EE1682
:10139000F104F9F6F981FF5FF98343945090040753
:1013A0003981351508F4B9CF852D29960FB6F894F3
:1013B000DEBF0FBECDBFDF91CF911F910F91FF9088
:1013C000EF90DF90CF90BF90AF909F908F907F90E5
:1013D0006F905F904F903F902F900895642E712CE6
:1013E000C42CD12C2885A22EB12CD8CFF501649025
:1013F0002E803F80280C391CF885F80DFD83F12CD8
:10140000E12C712C24E5C216D1040CF0D2C091015C
:101410002E0D3F1D2033310508F0CBC090910507FC
:1014200094012E0D3F1D9217130689F084F06D81F3
:101430006E0DA3010E2C02C0559547950A94E2F754
:10144000CA0141E080FF40E08A810E941D0B5FEFEE
:10145000E51AF50A88E0E816F104A1F699819F5F84
:101460009983E8E08E0E911CFFEFAF1ABF0A298521
:1014700039812313BBCF4B815C81040F151F5FEFB4
:10148000C51AD50A3FCF8981823009F092C0809178
:10149000050786958695869591E0980F998390919A
:1014A0000407421B550BE9819E9F202D1124249F88
:1014B0003001259F700C1124209102073091030701
:1014C000620E731E592E492F4150550B9A01492F18
:1014D0004519F901E41BF1098E9FE02D1124E60D59
:1014E000F72DF11D4081411103C05A945110EFCFE7
:1014F0009885892F90E09C838B83912C812CB12C33
:10150000A12C2B812A83E42CF12CD12CC12C3EC0A0
:10151000809104078A9DF0018B9DF00D1124EC0D44
:10152000FD1DE60DF71DE49110E000E02E2E312C9C
:10153000E4E5EE16F104E8F52B813C81200F311F24
:1015400020333105B4F5909105079401200F311F28
:101550009217130681F07CF06A81600F9101002ED2
:1015600002C0359527950A94E2F741E020FF40E05C
:101570008E2D0E941D0B0F5F1F4F08301105C1F605
:101580003FEFC31AD30A4FEFE41AF40AC51408F464
:10159000BFCF5FEFA51AB50A88E0880E911CEB81DA
:1015A000FC813896FC83EB83F981AF1608F4A9CF50
:1015B000FBCE512CF9CE0F931F93CF93DF93182FAF
:1015C000062F209105078FE290E0821B9109EA0126
:1015D0006817190661F05CF0DF91CF911F910F91B0
:1015E0000895602F812F0E9424098F5F180F499161
:1015F0004111F7CFF1CF0F931F93CF93DF93182FA4
:10160000062F209105078FE290E0821B9109681751
:10161000190609F06CF4EA01FE0144912196442375
:1016200039F0602F812F0E9424098F5F180FF4CFAB
:10163000DF91CF911F910F910895843518F5603394
:1016400008F5E82FF0E0962F96959695969524E567
:10165000929FE00DF11D1124EA5FFA4F9081562F01
:10166000577021E030E001C0220F5A95EAF7442379
:1016700031F0292B2083262F482F0C9468062095C3
:101680002923F8CF08958435C8F46033B8F4962F31
:1016900096959695969544E5949F900111242A5F1E
:1016A0003A4F280F311DF901808190E0677002C028
:1016B000959587956A95E2F78170089580E0089581
:1016C000CF93DF93C82FD62F8435E8F46033D8F456
:1016D000262F482F0E9468068D2F86958695869521
:1016E000EC2FF0E094E5899FE00DF11D1124EA5FF5
:1016F000FA4FD77021E030E001C0220FDA95EAF707
:10170000808182278083DF91CF9108958F929F926D
:10171000AF92BF92CF92DF92EF92FF920F931F93FF
:10172000CF93DF93C82FD62F142FF22E261B330B07
:10173000690137FF03C0D194C194D108812F8C1B5C
:10174000990B5C0197FF03C0B194A194B108AC144C
:10175000BD0434F4812F1F2DF82E8C2FCD2FD82FC0
:101760001C1730F48D2FDF2DF82E8C2FC12F182F42
:101770002F2D412F6D2F8C2F0E946806812E8C1AE1
:101780002F2D2D1B330BC90137FF03C09195819578
:101790009109E82E982C9694DF1510F1FF24FA9405
:1017A0001C1768F4DF91CF911F910F91FF90EF907C
:1017B000DF90CF90BF90AF909F908F900895402F73
:1017C0006C2F8D2FAC14BD0414F06D2F8C2F0E9444
:1017D0001D0B9E1897FE02C0DF0D980CCF5FE0CF67
:1017E000FF24F394DDCF5F926F927F928F929F924E
:1017F000AF92BF92CF92DF92EF92FF920F931F931F
:10180000CF93DF93182F562EC42FD22FE82EF12C12
:101810005701A40EB11C662E712C4301820E911C3F
:10182000EA14FB04CCF02FEF2D0F250D4FEF4C0FDA
:10183000410F652D812FDF91CF911F910F91FF9067
:10184000EF90DF90CF90BF90AF909F908F907F9060
:101850006F905F900C9468066301C814D90424F05B
:101860008FEFE81AF80ADCCF402F6C2D8E2D0E94E6
:101870001D0B8FEFC81AD80AF0CF8F929F92AF92AC
:10188000BF92DF92EF92FF920F931F93CF93DF935C
:10189000D82F162FC42FA22EE82EF12CDD24DA9497
:1018A000D20ED60E4701840E911CE814F904DCF028
:1018B000E12EF12CC150CD0FAE0CBF2CB11CEA149F
:1018C000FB04FCF02D2D4C2F612F8D2FDF91CF913C
:1018D0001F910F91FF90EF90DF90BF90AF909F907E
:1018E0008F900C946806402F612F8E2D0E941D0B47
:1018F000402F6D2D8E2D0E941D0B8FEFE81AF80AD8
:10190000D4CF402F6E2D8D2F0E941D0B402F6E2D9A
:101910008C2F0E941D0B8FEFE81AF80AD0CF6F9220
:101920007F928F929F92AF92BF92CF92DF92EF926F
:10193000FF920F931F93CF93DF93182FF62EC42F90
:10194000D22F011101C001E0E11002C0EE24E394A6
:10195000A12EB12C45018C0E911C66246A946D0E4B
:10196000EF0CA814B9040CF1AF2CB12C45018D0E6D
:10197000911CC150010FA814B90464F12FEF2D0F71
:101980002F0D4C2F410F6F2D812FDF91CF911F9184
:101990000F91FF90EF90DF90CF90BF90AF909F900E
:1019A0008F907F906F900C946806762C7F0CDF2CC4
:1019B0004C2D6D2D8A2D0E941D0B4C2D672D8A2DCF
:1019C0000E941D0BD3947A94DE10F2CF8FEFA81AE9
:1019D000B80AC7CFDC2ED10EE12E4C2D6A2D8E2DEC
:1019E0000E941D0B4C2D6A2D8D2D0E941D0BE39422
:1019F000DA940E11F2CF8FEFA81AB80ABCCFEF928B
:101A0000FF920F931F93CF93DF93E82E162FC42FCF
:101A1000D22F0E943D0CD10FCE0D2D2F4C2F6D2FAC
:101A200081E08E0D0E94860B61E0610F2D2F4C2FFF
:101A30008C2F0E94860BDF91CF911F910F91FF9009
:101A4000EF900895AF92BF92CF92DF92EF92FF9204
:101A50000F931F93CF93DF93E82ED62EF22E81E0C3
:101A6000C82EC41AB42EB194BB0CC42FA42EA60E3B
:101A7000142F1E0D062F041BDE2DD41B2A2D412FE3
:101A8000602F8D2F0E9468064F2D6A2D8E2D0E948B
:101A90001D0B4F2D602F8E2D0E941D0B4F2D6D2D78
:101AA000812F0E941D0B4F2D6D2D8D2F0E941D0B20
:101AB000D0E0DC175CF0DF91CF911F910F91FF9088
:101AC000EF90DF90CF90BF90AF900895C7FC04C017
:101AD000C150B394B394CB0CDF5F8D2F880F8F5F11
:101AE000C80EAE2CAD0E4F2D1C2F1D0D612F8A2D53
:101AF0000E941D0B0E2D0D1B4F2D612F802F0E945C
:101B00001D0B4F2D1D2D1C1B612F8A2D0E941D0B9F
:101B10004F2D612F802F0E941D0B1D2D1D0F4F2D4E
:101B2000612F0C2F0E0D802F0E941D0B4F2D612F4A
:101B30001E2D1C1B812F0E941D0BAD2CAD1A4F2D8D
:101B40006A2D802F0E941D0B4F2D6A2D812F0E9420
:101B50001D0BAFCF4F925F926F927F928F929F92A9
:101B6000AF92BF92CF92DF92EF92FF920F931F93AB
:101B7000CF93DF93F82E062F822ED1E0D41B942E24
:101B80009194990CC42F242F260F480F6C1B8C1B8B
:101B90000E94680610E0CC2ED12C5801AC18BD086C
:101BA000C00ED11ECA14DB04D4F4662463946F0CF7
:101BB00077247A947F0CE12CEC16D4F0DF91CF914E
:101BC0001F910F91FF90EF90DF90CF90BF90AF905B
:101BD0009F908F907F906F905F904F900895482DC9
:101BE0006A2D8F2D0E941D0B8FEFA81AB80ADACF2D
:101BF000D7FD04C0C15093949394D90DE3948E2DD6
:101C0000880F8F5FD80FAC2E0C2E000CBB0868011C
:101C1000CA18DB08A00EB11EAC14BD049CF4AE2C97
:101C20000E2C000CBB086801CA18DB08A00EB11E00
:101C30005C2E5F0C4F2C4C1AAC14BD048CF46394D6
:101C40007A94BACF482D6C2D862D0E941D0B482DFD
:101C50006C2D872D0E941D0B8FEFC81AD80ADCCF80
:101C6000482D6C2D852D0E941D0B482D6C2D842D2B
:101C70000E941D0B8FEFC81AD80ADECFCF92DF92D9
:101C8000EF92FF921F93CF93DF93162FC82F840FED
:101C90009927991F7C01862F820F9927991F6C0124
:101CA000CE151F0494F0DF91CF911F91FF90EF901C
:101CB000DF90CF9008956D2F8C2F0E94600BDF5F17
:101CC000DC151D04C4F3CF5FEBCFD12FF9CF48EF64
:101CD00051E0BC018091FE069091FF060E94EA301F
:101CE0000C9496066F927F928F929F92AF92BF92C2
:101CF000CF92DF92EF92FF920F931F93CF93DF93D8
:101D000004E510E080E3E82EF12C92E3C92ED12CFB
:101D100020EAA22E2FE0B22E30ED832E37E0932E54
:101D20000E94A1060E94DA30B8010E943030782E5D
:101D30000E94DA30B7010E943030682E0E94DA30FB
:101D4000B6010E943030D82FC0E021E04C2F662D24
:101D5000872D0E94AA0D0E944607C5010197F1F741
:101D6000CF5FDC1790F7C0E020E04C2F662D872D69
:101D70000E94AA0D0E944607C4010197F1F7CF5FA8
:101D8000DC1790F78091D801882351F21092D80186
:101D9000DF91CF911F910F91FF90EF90DF90CF9047
:101DA000BF90AF909F908F907F906F900895CF924B
:101DB000DF92EF92FF920F931F93CF93DF93CDB7F4
:101DC000DEB728970FB6F894DEBF0FBECDBF1A82DC
:101DD0001982FE01339686E0DF011D928A95E9F7AC
:101DE00010E089E5C82E81E0D82ECE0101967C0155
:101DF0000E94B50609E32EE245E16FE08BE198E031
:101E00000E9409091F921F93DF92CF92FF92EF92D7
:101E10000E943F31A70160E080E00E94DB0A012FB1
:101E2000000F000F26E04EE166E28AE00E94A5075F
:101E3000012F000F2EE148E060E086E40E94E107F8
:101E40000E9446071F5F8091D8010F900F900F905E
:101E50000F900F900F90882359F21092D801289676
:101E60000FB6F894DEBF0FBECDBFDF91CF911F91AB
:101E70000F91FF90EF90DF90CF9008958F929F92F7
:101E8000AF92BF92CF92DF92EF920F93CF93DF93F7
:101E9000CDB7DEB728970FB6F894DEBF0FBECDBF23
:101EA0001A821982FE01339686E0DF011D928A951F
:101EB000E9F7D12CC12C99E5892E91E0992ECE011C
:101EC00001965C010E94B50682E0E82E09E320E35A
:101ED00043E16CE083EB92E00E941609DF92CF921F
:101EE0009F928F92BF92AF920E943F31A50160E016
:101EF00080E00E94DB0A0E9446079FEFC91AD90AB8
:101F00008091D8010F900F900F900F900F900F902D
:101F10008823C1F21092D80128960FB6F894DEBF3C
:101F20000FBECDBFDF91CF910F91EF90DF90CF909B
:101F3000BF90AF909F908F9008950F931F93CF9372
:101F4000DF9309E32EE245E16FE08BE198E00E9428
:101F5000090980910507CEE2C81B08EC10E0D0E02B
:101F6000DC131AC0DC2FDD23D1F38091D80181115D
:101F700017C00E94B50640E651E06D2F80E00E9438
:101F8000DB0A0E94460780E293E0F8013197F1F7FF
:101F90000197D9F7D150E7CF8091D801882339F044
:101FA0001092D801DF91CF911F910F9108950E9457
:101FB000B5064CE551E06D2F80E00E94DB0A0E94DF
:101FC000460780E293E0F8013197F1F70197D9F7DE
:101FD000DF5FC6CFCF92DF92EF92FF920F931F93F6
:101FE000CF93DF93CDB7DEB72F970FB6F894DEBF50
:101FF0000FBECDBF0FE720E247E065E083E49AE043
:102000000E946D1110E27E018FE0E80EF11C88EC59
:10201000C82ED12CFE013196CF0111931F5F17FD01
:1020200010E2EE16FF06C9F71F860E94501280913B
:10203000D801882389F01092D8012F960FB6F89412
:10204000DEBF0FBECDBFDF91CF911F910F91FF90EB
:10205000EF90DF90CF90089580E197E2F6013197FD
:10206000F1F70197D9F7D6CF0F930FE720E247E0BA
:1020700065E083E49AE00E946D110E94B50644E693
:1020800051E060E080E00E94DE110E9446078091EE
:10209000D8018823E1F31092D8010F910895CF92CF
:1020A000EF920F93CF93DF930FE720E247E065E0D5
:1020B00083E49AE00E946D110E94B50641E751E069
:1020C00060E080E00E94DE110E94460780ED97E00C
:1020D00028EC30E0F9013197F1F70197D9F7C8EC16
:1020E000D0E00E94A10601E022E344E660E080E047
:1020F0000E943D0C40E851E069E080E00E94DE1162
:102100000E94460788E893E1FE013197F1F70197B5
:10211000D9F78091D801882341F01092D801DF913E
:10212000CF910F91EF90CF9008950E94A1064FE8B4
:1021300051E069E080E00E94DE110E944607CC2455
:10214000C39426E0E22E03E02EE140E565E085E061
:102150000E948F0C0E94460788E893E1FE013197A8
:10216000F1F70197D9F78091D8018111D6CFCC240E
:10217000C39492E0E92E02E024E144E160E080E0D3
:102180000E948F0C0E94460788E893E1FE01319778
:10219000F1F70197D9F78091D8018111BECFCC24F6
:1021A000C39485E0E82E05E024E144E16AE084E69A
:1021B0000E948F0C0E94460788E893E1FE01319748
:1021C000F1F70197D9F78091D8018111A6CF0E942C
:1021D000A10644EA51E069E080E00E94DE1101E0DE
:1021E0002EE14DE260E080E00E94FF0C0E94460775
:1021F00088E893E1FE013197F1F70197D9F78091D3
:10220000D80181118ACF01E02EE14EE165E08FE532
:102210000E94FF0C0E94460788E893E1FE01319777
:10222000F1F70197D9F78091D801882309F459CFA4
:1022300074CF0F93CF93DF930E94A1060E944607AD
:10224000C0E00C2F22E342E360E080E00E941D0822
:102250002EE142E360E08CE30E941D0824E14CE3A0
:1022600063E28CE30E941D088091D801882331F03D
:102270001092D801DF91CF910F910895CC5EC430B8
:1022800001F7CFEF0C2F22E342E360E080E00E94F1
:102290001D08DC2FD0950D2F2EE142E360E08CE38A
:1022A0000E941D0824E14CE363E28CE30E941D08B8
:1022B0008091D8018111DCCFC451CB3F19F7C0CF39
:1022C0008BE194E00E94670E0E9446078091D8013E
:1022D0008823E1F31092D80108950F93E2E0F7E02C
:1022E00091838083628343832483058316820F91C5
:1022F00008951F93CF93DF93D82F162FC42F2091CB
:1023000005072830B0F580910607481720F0809126
:102310000707841708F4CEE2622F70E06F5F7F4FEB
:1023200080E390E00E9430301617170614F54091B4
:1023300004076D2F640F7727771F64357105CCF480
:1023400081E0820F282F189F200D11244D0F622F3E
:10235000681B8D2F0E94680684E5189FB001112428
:1023600080E04C2F50E0A82FAD0F90910407891703
:1023700020F0DF91CF911F91089520910607FA0177
:10238000E21BF1099F01929FF001939FF00D112430
:102390009F01280F311DE0910207F0910307E20F22
:1023A000F31FE4912091FE063091FF06260F371FA0
:1023B000A20FB32FB11DEC938F5FD5CFEF92FF9299
:1023C0000F931F93CF93DF93C82FD62F80910507CC
:1023D000883030F58A0180E3E82EF12CF801419134
:1023E0008F014423E9F06D2F8C2F0E947911809189
:1023F000040791E0980FC90F2C2F280F3327331FA4
:102400002435310514F0DF5FC0E06091050770E00E
:102410006F5F7F4FC7010E943030D6171706F4F266
:10242000DF91CF911F910F91FF90EF900895EF9260
:10243000FF920F931F93CF93DF93182F062F809156
:102440000507883030F5EA0180E3E82EF12CFE0123
:1024500044914423F1F0602F812F0E9479118091E3
:10246000040791E0980F190F212F280F3327331FEE
:102470002435310514F00F5F10E0219660910507B7
:1024800070E06F5F7F4FC7010E943030061717065C
:10249000F4F2DF91CF911F910F91FF90EF9008958B
:1024A000CF93DF93EC010E94D106AE0165E080E09E
:1024B0000E94DE11DF91CF910C944607CF93DF93FA
:1024C000EC010E94D106AE0165E080E00E94171287
:1024D000DF91CF910C944607682F660F660F660F49
:1024E00028E043E580E00C943E0EBF92CF92DF924D
:1024F000EF92FF920F931F93CF93DF93D82EC62EA8
:102500002FE2261708F460C0809104078D0D9927EB
:10251000991F843591050CF057C0809105078830CC
:1025200008F052C08091080781114EC080910607C3
:10253000481720F080910707841708F44EE2F12C29
:10254000C42FD0E0BF2CBD0C40910407F41688F0D6
:10255000209105072C0D4D0D6C2D8D2DDF91CF9108
:102560001F910F91FF90EF90DF90CF90BF900C9450
:102570006806809106079E01281B3109429F800151
:10258000439F100D11240F0D111DE0910207F091D2
:102590000307E00FF11FE491E12C0E2F10E0809172
:1025A0000507E81610F0F394CDCFA8010E2C02C059
:1025B000559547950A94E2F741706E2D6C0D8B2D61
:1025C0000E941D0BE394EBCFDF91CF911F910F91F0
:1025D000FF90EF90DF90CF90BF900895CF92DF9261
:1025E000EF92FF920F931F93CF93DF936C01062F0F
:1025F000C42F8EEE0E94DD1781110FC08C2F0E9418
:102600003118C82F8FEE0E942718C82BD0E0015038
:10261000110BCC2349F00E942918C1E013C00E947D
:102620004218F7018083DF5F8D2F90E07601E80E7E
:10263000F91E801791079CF30E944C18F7018083C4
:102640000E9429188C2FDF91CF911F910F91FF903D
:10265000EF90DF90CF9008950F931F93CF93DF9368
:102660000F92CDB7DEB7082F14E643EF61E0CE013D
:1026700001960E94EE1281110CC08981802319F00D
:10268000115099F782E00F90DF91CF911F910F9138
:10269000089581E0F8CF0F931F93CF938C01C62F3D
:1026A0008EEE0E94DD1781110CC08C2F0E94311814
:1026B000C82FF80180810E943118C82B21F00E9498
:1026C0002918C1E002C00E9429188C2FCF911F91B8
:1026D0000F9108951F93CF93DF93CDB7DEB7A297E5
:1026E0000FB6F894DEBF0FBECDBF86EB8AA360EEB7
:1026F000CE0182960E944B13882359F081E0A29666
:102700000FB6F894DEBF0FBECDBFDF91CF911F9102
:10271000089581E00E942C138111F0CF48E86AE10E
:10272000CE0101960E94EE12182F41EE67E0CE0115
:102730004B960E94EE12812B09F729813A81309342
:10274000FD012093FC019C812B81392F3093FB01EB
:102750002093FA019E812D81392F3093F901209326
:10276000F8012F8138853093F7012093F6019A857F
:102770002985392F3093F5012093F4019C852B8511
:10278000392F3093F3012093F2019E852D85392F47
:102790003093F1012093F00198892F85392F3093E0
:1027A000EF012093EE019A892989392F3093ED01A9
:1027B0002093EC019C892B89392F3093EB012093D6
:1027C000EA019E892D89392F3093E9012093E80190
:1027D000988D2F89392F3093E7012093E6019A8D48
:1027E0009093E5019C8D2B8D392F3093E40120933C
:1027F000E3019D8D9093E2019F8D2E8D40E1240297
:1028000090011124492F4F70242B3093E101209324
:10281000E00128A140E124029001112492959F70CB
:10282000292B3093DF012093DE0199A19093DD01E4
:1028300066CF1F93CF93DF930F92CDB7DEB7182FDC
:1028400045EF61E0CE0101960E94EE1291E0811108
:1028500011C08981837E94E0199F90011124822BFD
:10286000898365EFCE0101960E944B1391E081119F
:1028700001C090E0892F0F90DF91CF911F910895B3
:102880001F93CF93DF930F92CDB7DEB7182F45EF8D
:1028900061E0CE0101960E94EE1291E0811111C01B
:1028A00089818F7190E2199F90011124822B898375
:1028B00065EFCE0101960E944B1391E0811101C09A
:1028C00090E0892F0F90DF91CF911F9108950F9382
:1028D0001F93CF93DF9300D0CDB7DEB7182F062F0D
:1028E00044EF61E0CE0101960E94EE12882349F088
:1028F00091E0892F0F900F90DF91CF911F910F9151
:1029000008950130B9F0002361F00230E1F064EF86
:10291000CE0101960E944B1391E08111EACF90E025
:10292000E8CF1A8362EFCE0102960E944B138823F0
:1029300071F3DECF2981237E34E0139FC00111247F
:10294000822B8983E4CF29812F7130E2F6CF1F9348
:10295000CF93DF930F92CDB7DEB7182F44EF61E02E
:10296000CE0101960E94EE1291E081110DC0898185
:102970008C7F812B898364EFCE0101960E944B13DB
:1029800091E0811101C090E0892F0F90DF91CF91EC
:102990001F9108952F923F924F925F926F927F9274
:1029A0008F929F92AF92BF92CF92DF92EF92FF925F
:1029B0000F931F93CF93DF93CDB7DEB763970FB617
:1029C000F894DEBF0FBECDBF5C011B015B8B4A8B51
:1029D00044EF61E0CE0109960E94EE128823D9F0FF
:1029E00011E0812F63960FB6F894DEBF0FBECDBF06
:1029F000DF91CF911F910F91FF90EF90DF90CF90DB
:102A0000BF90AF909F908F907F906F905F904F900E
:102A10003F902F9008958985982F937009F4AAC24A
:102A200047EF68E0CE0101960E94EE12182F811147
:102A3000D7CF0981EA81FB812C8130E050E040E072
:102A4000ACE0220F331F441F551FAA95D1F78D818B
:102A500090E0B0E0A0E064E0880F991FAA1FBB1FC0
:102A60006A95D1F7822B932BA42BB52B2E8122951F
:102A70002F706C017D01C22AA70196018F81988574
:102A80009827892798276C01F12CE12CCE86DF86C8
:102A9000E88AF98A8091FC019091FD01B0E0A0E004
:102AA00029013A0174E075946794579447947A9594
:102AB000D1F7481A590A6A0A7B0A63E05595479587
:102AC000379527956A95D1F7880F991FAA1FBB1FC5
:102AD000281B390B4A0B5B0BA091FA01B091FB014B
:102AE0000E9486306B017C01ABE0F594E794D794AB
:102AF000C794AA95D1F7A3019201C301B2010E9424
:102B00000C309B01AC01BCE0559547953795279556
:102B1000BA95D1F7A091F801B091F9010E948630E1
:102B20002EE095958795779567952A95D1F7C60EEE
:102B3000D71EE81EF91EC092D901D092DA01E092A8
:102B4000DB01F092DC01A5E0B0E0A70196010E9454
:102B50007B3060587F4F8F4F9F4F672F782F892F83
:102B6000992787FD9A95D5016D937D938D939C93BD
:102B70001397260137017594679457944794BAEFD9
:102B80005B1A61087108C301B20152E095958795FF
:102B9000779567955A95D1F79B01AC010E940C304F
:102BA0006A877B878C879D87A091F201B091F301A2
:102BB0009B01AC016DE055954795379527956A9532
:102BC000D1F70E9486304B015C0173E0B594A79465
:102BD000979487947A95D1F7A091F401B091F5017B
:102BE000A30192010E9486309B01AC015595479547
:102BF00037952795280D391D4A1D5B1DB2E1559566
:102C0000479537952795BA95D1F730584F4F5F4F75
:102C1000A091F601B091F7010E947B304B015C015D
:102C20008FE0B594A794979487948A95D1F78114EF
:102C30009104A104B10409F4B8C12A853B854C85EF
:102C40005D858BE055954795379527958A95D1F702
:102C5000A091EC01B091ED010E9486306A877B87DC
:102C60008C879D87A091EE01B091EF01A3019201A5
:102C70000E948630DC01CB01880F991FAA1FBB1F61
:102C80002A853B854C855D85820F931FA41FB51F48
:102C900032E0B595A795979587953A95D1F72E2F60
:102CA00030E050E040E064E0220F331F441F551F26
:102CB0006A95D1F7F295FF702F2B402E512C712C75
:102CC000612C7CE0440C551C661C771C7A95D1F76E
:102CD00024293529462957294090F0015090F101C7
:102CE000052C000C66087708320155244424840D15
:102CF000951DA61DB71DFCE0B595A79597958795E1
:102D0000FA95D1F7280F391F4A1F5B1FABECB3EFC1
:102D10000E948930805B9C4397FD3CC1660F771F02
:102D2000881F991FA50194010E94443029013A018E
:102D3000C301B20133E096958795779567953A95EB
:102D4000D1F79B01AC010E940C309B01AC016DE0FE
:102D500056954795379527956A95D1F7A091E60145
:102D6000B091E7010E9486304B015C017CE0B59494
:102D7000A794979487947A95D1F7A3019201E2E002
:102D80005695479537952795EA95D1F7A091E80193
:102D9000B091E9010E948630FDE095958795779581
:102DA0006795FA95D1F7860E971EA81EB91E8091D9
:102DB000EA019091EB01092E000CAA0BBB0B880DC8
:102DC000991DAA1DBB1D4C015D01A4E0B594A794FB
:102DD00097948794AA95D1F7480C591C6A1C7B1CC0
:102DE000D1014D925D926D927C921397BCE2DB1AF9
:102DF000B1E0EB0AF1088E849F84A888B9883EE090
:102E0000880C991CAA1CBB1C3A95D1F78091E00153
:102E10009091E101092E000CAA0BBB0B44E1880F35
:102E2000991FAA1FBB1F4A95D1F7881A990AAA0AA7
:102E3000BB0AA091DE01B091DF01A70196010E94BB
:102E40008630861A970AA80AB90AE0E49E0EA11CE9
:102E5000B11C6FE0B594A794979487946A95D1F7C5
:102E6000A091E201B0E00E947B302B013C017BE0AD
:102E700075946794579447947A95D1F7F0E85F0E6C
:102E8000611C711CA091DD010A2E000CBB0B0E947D
:102E90008630EAE09595879577956795EA95D1F71D
:102EA000A30192010E940C309B01AC01FAE0559500
:102EB000479537952795FA95D1F7405E5F4FA091DA
:102EC000E301B091E4010E948630705E8F4F9F4F06
:102ED000AEE09595879577956795AA95D1F7A50169
:102EE00094010E940C306B017C01BFE095958795A1
:102EF00077956795BA95D1F79B01AC010E940C308C
:102F00009B01AC0107E055954795379527950A95A4
:102F1000D1F7A091E501B0E00E947B3024E09595C7
:102F20008795779567952A95D1F7A7019601261B76
:102F3000370B480B590BDA01C901B7FF03C080E01A
:102F400090E0DC0181309105A10539E1B30724F05F
:102F500080E090E0A0E0B9E12CE0B595A7959795C9
:102F600087952A95D1F7EA89FB8980839183A2838B
:102F7000B38337CD8160898764EFCE0109960E94C3
:102F80004B1381112DCD88E00E942C13882309F466
:102F900047CD26CDA50194010E94443029013A0174
:102FA000440C551C661C771CC3CE412C512C32019D
:102FB00017CF80E28093B800089594EA9093BC0004
:102FC0009091BC0097FFFCCF9091B900987F98300A
:102FD00011F0903199F48093BB0084E88093BC0099
:102FE0008091BC0087FFFCCF9091B900987F983109
:102FF00019F081E0903409F480E0089581E00895AB
:1030000024EA34E844E92093BC009091BC0097FF87
:10301000FCCF9091B900987F983011F0903199F7DA
:103020008093BB003093BC009091BC0097FFFCCF15
:103030009091B900987F903211F0983539F440930F
:10304000BC009091BC0094FDFCCFDDCF08950C94A2
:10305000DD1784E98093BC008091BC0084FDFCCF27
:1030600008958093BB0084E88093BC008091BC00ED
:1030700087FFFCCF9091B900987F81E0983209F4E6
:1030800080E0089584EC8093BC008091BC0087FFB1
:10309000FCCF8091BB00089584E88093BC008091B0
:1030A000BC0087FFFCCF8091BB0008951092C50043
:1030B00087E68093C40086E08093C20088E980930D
:1030C000C1000895CF93C82F8A3019F48DE00E9473
:1030D00062188091C00085FFFCCFC093C600CF91DD
:1030E0000895CF93C82F82958F708A3058F4805DF1
:1030F0000E9462188C2F8F708A3030F4805DCF91DF
:103100000C946218895AF4CF895AF9CFCF93C82FFB
:10311000892F0E9471188C2FCF910C947118CF9227
:10312000DF92EF92FF926B010E948618C601FF901A
:10313000EF90DF90CF900C948618AF92BF92DF9201
:10314000EF92FF920F931F93CF93DF937C0105E0E3
:1031500010E020E0C0E1D7E28AE0A82EB12CC70140
:10316000BE010E941C30D62E262B19F4C130D10589
:1031700029F480E38D0D0E94621821E0DC9EC001DD
:10318000DD9E900D1124E81AF90ACE01B5010E94C6
:103190001C30EB010150110911F7DF91CF911F9104
:1031A0000F91FF90EF90DF90BF90AF9008954F92F6
:1031B0005F926F927F928F929F92AF92BF92CF92C7
:1031C000DF92EF92FF920F931F93CF93DF934B0108
:1031D0005C010AE010E0C0E0C12C8AECD82E8AE93C
:1031E000E82E8BE3F82E9AE0492E512C612C712C9D
:1031F000C501B401A70196010E944430D22FC22B11
:1032000031F481E0C816D104E104F10429F480E32B
:103210008D0F0E946218C1E0AD2FB0E0A7019601AA
:103220000E947B30861A970AA80AB90AC701B6011C
:10323000A30192010E94443069017A0101501109F1
:10324000B9F6DF91CF911F910F91FF90EF90DF9032
:10325000CF90BF90AF909F908F907F906F905F9036
:103260004F900895CF93DF93EC018991811103C0B2
:10327000DF91CF9108950E946218F7CFCF93DF932B
:10328000EC01FE0184912196882319F00E946218B6
:10329000F8CFDF91CF9108959FB778948091C000C7
:1032A00087FF07C09FBF8091C6008D3009F48AE078
:1032B000089583B7816083BF889583B78E7F83BF6E
:1032C000EDCF18958EBD0DB407FEFDCF8DB58F7770
:1032D0008DBD08958FEF8EBD0DB407FEFDCF8DB56A
:1032E0008F778DBD8EB50895FF920F931F93CF9367
:1032F000DF93C82FD42F152F062FF72E0E946A199F
:103300008C2F80640E9462198F2D0E946219802F79
:103310000E946219812F0E9462198D2F0E946219EA
:1033200085E9CC2321F087E8C83009F08FEF0E94AF
:103330006219CAE00E946A198F3F11F4C150D1F797
:10334000DF91CF911F910F91FF90089583B18095E8
:10335000881F8827881F089586B185FB882780F9F4
:1033600091E0892708958091FF01811114C0609137
:10337000000270910102809102029091030220E00C
:1033800032E044E052E00E943A1B882329F081E0B9
:103390008093FF01089581E008952F923F924F920C
:1033A0005F926F927F928F929F92AF92BF92CF92D5
:1033B000DF92EF92FF920F931F93CF93DF934B0116
:1033C0005C017A016901C114D10411F481E02EC0BD
:1033D000140181E0382224013501421853086108A4
:1033E000710880E092E082199309E6018C159D0531
:1033F00008F4EC018091000290910102A091020278
:10340000B091030284159505A605B70509F44FC0D0
:103410000E94B319882351F02E98B301A20181E1D3
:103420000E9474198823A9F02E9A80E0DF91CF9131
:103430001F910F91FF90EF90DF90CF90BF90AF90D2
:103440009F908F907F906F905F904F903F902F90C4
:1034500008950E946A198E3FE1F704E012E00E948D
:103460006A19F80181938F01F4E004301F07B9F75E
:103470004092000250920102609202027092030296
:10348000B1016C5F7D4FAE01C7010E94F330EC0EBD
:10349000FD1E0E946A190E946A192E9A0E946A19DA
:1034A000CC1ADD0A8C0E9D1EA11CB11C8CCFB10163
:1034B0006C5F7D4FAE01C7010E94F330EC0EFD1E24
:1034C000EFCF0F931F93CF9327983D98239A259A78
:1034D000269A24982E9A83E58CBD8DB58E7F8DBD5E
:1034E0001092FE011F9950C0CAE00E946A19C15093
:1034F000E1F72E9800E012E040E050E0BA0180E0F1
:103500000E947419813049F001501109A9F72E9ACF
:103510008C2FCF911F910F91089540E050E0BA0198
:1035200087E30E94741940E050E0BA0189E20E94EA
:10353000741982FD05C08091FE0181608093FE01B7
:1035400000E010E88091FE01837040E050E0BA0195
:1035500079F087E30E94741940E050E0BA0189E2F3
:103560000E94741980FF06C00150110959F7CFCF8E
:1035700081E0F6CF40E052E060E070E080E10E9440
:1035800074192E9A882311F0C0E0C2CF8CB58C7FBD
:103590008CBD8DB581608DBD8FEF9FEFDC01809379
:1035A000000290930102A0930202B093030281E013
:1035B0008093FF0120E032E044E052E060E070E000
:1035C000CB010E94CD19C1E08111A2CFDDCF2F9296
:1035D0003F924F925F926F927F928F929F92AF92A3
:1035E000BF92CF92DF92EF92FF920F931F93CF93F0
:1035F000DF932B013C015A01E90147011601452BDC
:1036000029F1209719F10217130700F1EF28F1F0C3
:103610006901F12CE12C9E01A501C301B2010E94B8
:10362000CD19882399F09101B301A201C501F401DC
:103630000995882349F04C0C5D1C6E1C7F1C0C1BEB
:103640001D0B0C171D0738F781E001C080E0DF91EA
:10365000CF911F910F91FF90EF90DF90CF90BF908F
:10366000AF909F908F907F906F905F904F903F9022
:103670002F9008952F923F924F925F926F927F9278
:103680008F929F92AF92BF92CF92DF92EF92FF9272
:103690000F931F93CF93DF9300D00F92CDB7DEB778
:1036A0006B017C011A013B832A830E94AC19898338
:1036B000882309F45FC0198289810F900F900F90C1
:1036C000DF91CF911F910F91FF90EF90DF90CF90FE
:1036D000BF90AF909F908F907F906F905F904F9032
:1036E0003F902F90089520E032E044E052E0C30183
:1036F000B2010E94CD19811170C0DDCFA401B101CA
:10370000C8018C5F9D4F0E94F3301092FF018A81A7
:103710009B81A816B90608F46EC091E09983CCCFBE
:103720008EEF0E94621904E012E0F80181918F018E
:103730000E946219F4E004301F07B9F78FEF0E946E
:1037400062198FEF0E9462190E946A198F3FE1F798
:103750000E946A192E9A280C391CC80CD91CE11C2D
:10376000F11C8A819B81881999099B838A8391E046
:103770009093FF01EA81FB81EF2B79F286011170B2
:1037800026013701401A510A61087108A12C82E014
:10379000B82EA01AB10A45018A819B818A159B0522
:1037A00008F44C018091000290910102A091020264
:1037B000B0910302481659066A067B06B1F00E94D2
:1037C000B319882309F477CF0115110509F08BCFC0
:1037D000811492E0990609F086CF4092000250923F
:1037E00001026092020270920302E4E02E16E2E00F
:1037F0003E0609F083CF2E98B301A20188E10E9412
:103800007419882309F48CCF2E9A56CF4F925F9269
:103810006F927F928F929F92AF92BF92CF92DF92E0
:10382000EF92FF920F931F93CF93DF932B013C01F5
:103830006A0159014801452B91F480E0DF91CF9155
:103840001F910F91FF90EF90DF90CF90BF90AF90BE
:103850009F908F907F906F905F904F900895890117
:103860008114910451F3A114B10419F0011511054B
:1038700049F09701B301A201C601F4010995EC01D9
:10388000009711F481E0DACFA114B10419F0081700
:10389000190798F29E01A601C301B2010E943A1BCA
:1038A000882359F24C0E5D1E611C711C0C1B1D0BF4
:1038B000DACFAF92BF92CF92DF92EF92FF920F9347
:1038C0001F93CF93DF93EC01892B91F01F9910C0C8
:1038D00089E1FE0111928A95E9F72E9840E050E0C7
:1038E000BA018AE00E947419F82E882319F02E9AE2
:1038F000F12C23C00E946A198E3FE1F710E000E02E
:1039000058EFE52E0E946A19E02F0F3030F4F0E0F6
:10391000E75DFB4C0C94663088830F5F1F4F0231CC
:10392000110581F740E050E0BA0189E00E94741966
:10393000A82E882309F445C02E9A8F2DDF91CF91B0
:103940001F910F91FF90EF90DF90CF90BF90AF90BD
:103950000895FE01E00FF11F8083DFCFFE01E00F2D
:10396000F11F8183DACF8A87D8CF90E0B0E0A0E062
:103970004E2D40039001419F300D1124205A3F4F9E
:1039800004C0880F991FAA1FBB1F2A95D2F74B8529
:103990005C856D857E85842B952BA62BB72B8B871D
:1039A0009C87AD87BE87B9CF8295807F8F87B5CF43
:1039B000282F22952F709F85922B9F878F70888B41
:1039C000ACCF0E946A198E3FE1F710E0B12CC12CF8
:1039D000D12C760101E00E946A19982F112381F001
:1039E0001E30A9F4282F30E086FD0D8B95FD0E8B3F
:1039F00094FD0F8B35952795359527952370288F46
:103A00001F5F123141F72E9AFF24F39496CF17309F
:103A100089F170F4153059F1163091F79370C92E71
:103A2000D12CF12CE12CFE2CED2CDC2CCC24E8CF7D
:103A30001930A1F140F11A3019F7991F9927991FF0
:103A4000A92AEA2DEB0DFF27FF1FCF010296A70140
:103A5000960104C0220F331F441F551F8A95D2F7C9
:103A6000DA01C901898B9A8BAB8BBC8BC9CF9F7054
:103A7000B92EC6CFC82A82E0CC0CDD1CEE1CFF1C80
:103A80008A95D1F7BDCF9295969596959370C92A50
:103A90005FEFC51AD50AE50AF50AB2CF990F9670FD
:103AA000A92EAECF8F929F92AF92BF92CF92DF920C
:103AB000EF92FF920F93CF93DF93CDB7DEB760976E
:103AC0000FB6F894DEBF0FBECDBF7C016B015A016B
:103AD0004901892BA1F490E080E060960FB6F8943C
:103AE000DEBF0FBECDBFDF91CF910F91FF90EF9062
:103AF000DF90CF90BF90AF909F908F900895672BED
:103B000051F3043044F707FD16C080E10802B0010C
:103B1000112462547E4F072E000C880B990B20E174
:103B200030E0AE014F5F5F4FF7010995882399F2AE
:103B30008D81882381F280910C048111CCCFECE03F
:103B4000F4E089E0DF011D928A95E9F7F09205041F
:103B5000E0920404D0920704C0920604B0920904D3
:103B6000A092080490920B0480920A0407FD1EC0E4
:103B70008D8180930C04CE0109960E94DD2C609308
:103B80000D0470930E0480930F0490931004CE01E3
:103B90000D960E94DD2C60931104709312048093A3
:103BA00013049093140484E094E097CF8FEF8093F4
:103BB0000C04F9CF009721F0FC01108681E00895F4
:103BC00080E0089580E190E008959C01FC018191DE
:103BD000255F3F4F982F90FB979597F98191890F1B
:103BE0002E173F07B9F70895CF92DF92EF92FF9219
:103BF0000F931F93CF93DF936C018901F901E2804A
:103C0000F380D0E0C0E0C6018C0F9D1FCE15DF050C
:103C100050F081E0DF91CF911F910F91FF90EF90D5
:103C2000DF90CF9008950E94D92C892B31F4F801B0
:103C3000808191810196918380832296E4CF8F9237
:103C40009F92AF92BF92CF92DF92EF92FF920F932B
:103C50001F93CF93DF93CDB7DEB72D970FB6F894B0
:103C6000DEBF0FBECDBF7C014A015B016901D901F6
:103C70000D911C91119712968D919C91139780969E
:103C800013969C938E931297F7018081853E11F0D5
:103C9000811117C0D60114961C9281E02D960FB6A3
:103CA000F894DEBF0FBECDBFDF91CF911F910F9172
:103CB000FF90EF90DF90CF90BF90AF909F908F904C
:103CC000089583858F3009F040C014968C91882325
:103CD00019F09585891789F08BE2F80111928A9580
:103CE000E9F7D7011D968C91F6018483D801979648
:103CF0008D929D92AD92BC929A97F70120812F737D
:103D00002150330B4DE0429FC001439F900D112481
:103D1000E4E0F1E0DE01119601900D924A95E1F7A1
:103D2000FE0131962DE0280F8F31910508F0B5CFB7
:103D3000A191AE0DBF2DB11D3C91D801A80FB91FA7
:103D40003C9301962813F0CFA8CFD8018C918823FB
:103D500041F0C7010E94E51DF6019481981709F40E
:103D600058C087E2D8011D928A95E9F7F80187A229
:103D700090A6A1A6B2A69701A801E0E0D9018D9175
:103D80009D01803299F0DA018C93D7011C969C91A9
:103D900093FF07C09FEB980F9A3118F4805EDA0109
:103DA0008C93EF5F4F5F5F4FE83041F7D8018C9104
:103DB000853011F485EE8C93D70118968C91803262
:103DC00021F1D801AE0FB11D8EE28C93B701685F6F
:103DD0007F4F94E09E0FEF5FDB018D91BD01980155
:103DE0002E0F311D803289F0D9018C93D7011C969A
:103DF0004C9144FF07C04FEB480F4A3118F4805EE6
:103E0000D9018C93EF5FE913E7CFE00FF12FF11D9C
:103E10001082F7018385D80190968C93C7014A964A
:103E20000E94D92CF80192A381A3C7014C960E944D
:103E3000DD2CD80193966D937D938D939C939697EB
:103E400081E0F601858380E029CF0F931F93CF9304
:103E5000DF9300D0CDB7DEB7FC01892B39F162309A
:103E6000710520F190E080E0660F771F881F991F91
:103E70000681178120853185600F711F821F931F76
:103E80000190F081E02D0190F081E02D22E030E002
:103E9000AE014F5F5F4F0995882341F089819A8178
:103EA0009C01215031092F3E3F4F10F090E080E0FF
:103EB0000F900F90DF91CF911F910F9108954F9226
:103EC0005F926F927F92AF92BF92CF92DF92EF920A
:103ED000FF920F931F93CF93DF9300D0CDB7DEB740
:103EE0005C018B01009709F45AC06230710508F437
:103EF00056C0DC0116964D905D906D907C901997A0
:103F00006801F12CE12CCC0CDD1CEE1CFF1CC40C58
:103F1000D51CE61CF71CD501ED91FC910190F081B8
:103F2000E02D22E030E0AE014F5F5F4FC701B601E8
:103F30000995882319F109811A8101151105E9F004
:103F4000C8014096089758F1083FBFEF1B0710F0D3
:103F500010E000E01A821982D501ED91FC910480F5
:103F6000F581E02D22E030E0AE014F5F5F4FC701E9
:103F7000B60109950115110519F681E00F900F9012
:103F8000DF91CF911F910F91FF90EF90DF90CF9035
:103F9000BF90AF907F906F905F904F90089580E0BA
:103FA000EDCF2F923F924F925F926F927F928F92BE
:103FB0009F92AF92BF92CF92DF92EF92FF920F93B8
:103FC0001F93CF93DF93CDB7DEB72C970FB6F8943E
:103FD000DEBF0FBECDBF6C011B015A010097E1F49B
:103FE000F12CE12CC7012C960FB6F894DEBF0FBE62
:103FF000CDBFDF91CF911F910F91FF90EF90DF9098
:10400000CF90BF90AF909F908F907F906F905F9078
:104010004F903F902F900895DC01ED91FC91119706
:10402000208131813A872987448155815C834B8384
:1040300016968D919D910D90BC91A02D8D839E83A0
:10404000AF83B887F601028D138D82859385A48591
:10405000B585B695A795979587959C878B87138E81
:10406000128E4C01F12CE12C8114910419F4AB282F
:10407000A1F167C00230110528F02B853C8502179D
:10408000130710F002E010E02801712C612C440CA1
:10409000551C661C771C8D819E81AF81B885480EAA
:1040A000591E6A1E7B1E22E030E0AE014F5F5F4F5B
:1040B000C301B201E985FA850995882309F490CFF7
:1040C00089819A81892B09F048C0A114B10431F586
:1040D000D6015B961C930E935A9732E02316310457
:1040E00008F480CFFA82E982B10190E080E0660FA7
:1040F000771F881F991F2D813E814F815885620F40
:10410000731F841F951F22E030E0AE014F5F5F4FA9
:10411000EB81FC8109958823A1F064CFE114F104BF
:10412000A9F4EFEFFFEFFA83E98322E030E0AE017C
:104130004F5F5F4FC301B201EB81FC810995811193
:1041400008C0B701C6010E945F1F4ACFFA82E98208
:10415000ECCFF1E0AF1AB108780121E0821A9108A2
:104160000F5F1F4F81CF0F931F93FC01892BA9F085
:104170006230710590F09B0122503109A089B1890C
:104180000E946C300289138924893589600F711F60
:10419000821F931F1F910F91089560E070E0CB0183
:1041A000F9CFEF92FF920F931F93CF93DF93CDB789
:1041B000DEB760970FB6F894DEBF0FBECDBF8C019F
:1041C00080E062307105C8F0C8010E94B320AE01E2
:1041D0004F5F5F4F20E1DA011D922A95E9F7F80160
:1041E000208931890190F081E02D0680F781E02D52
:1041F000F12CE12C02EE1DE1099560960FB6F894C2
:10420000DEBF0FBECDBFDF91CF911F910F91FF9009
:10421000EF9008954F925F926F927F928F929F924C
:10422000AF92BF92CF92DF92EF92FF920F931F93C4
:10423000CF93DF9300D000D00F92CDB7DEB78C01C3
:104240009B01FA0101900020E9F7CF01841B950B37
:104250000B966DE070E00E941C3088248394860EDB
:10426000D901AD90BC90A114B10409F05FC0F80170
:10427000C688D788E08CF18C228933894489558996
:104280002A833B834C835D8326013701912C2A814D
:104290003B814C815D81421653066406750609F028
:1042A00065C0A114B10409F488C0452846284728F0
:1042B00009F445C0B501C8010E94251F0097F1F51A
:1042C00041E050E0B501C8010E94D11FAC01009748
:1042D00009F473C09C0122503109F801A089B18909
:1042E0000E946C30C288D388E488F588C60ED71E39
:1042F000E81EF91EBA01C8010E94D120C701B6010B
:104300000F900F900F900F900F90DF91CF911F9112
:104310000F91FF90EF90DF90CF90BF90AF909F9064
:104320008F907F906F905F904F9008951A821B82BC
:104330001C821D82C12CD12C7601A6CF5C01B50157
:10434000C8010E94B3202B013C01D80150968D91E9
:104350009C91A3019201280F391F411D511D2A83F1
:104360003B834C835D8373016201912CD801ED91F5
:10437000FC910190F081E02D21E030E0AE014F5F33
:104380005F4FC301B20109958823B9F08981853E49
:1043900011F081110AC09394981408F0AFCFB0E2E5
:1043A0004B0E511C611C711C72CF73016201E0E263
:1043B000CE0ED11CE11CF11C67CFC12CD12C760193
:1043C0009DCF3F924F925F926F927F928F929F927A
:1043D000AF92BF92CF92DF92EF92FF920F931F9313
:1043E000CF93DF93CDB7DEB7A0970FB6F894DEBFBB
:1043F0000FBECDBF8B01009709F42BC1611571056C
:1044000009F427C1DC01ED91FC91A480B580FB018A
:1044100047A050A461A472A401900020E9F731974D
:104420006F01C61AD70AEC2CC6010C966DE070E03D
:104430000E943030F62E4BE050E060E270E0CE019A
:1044400001960E94FC306EE270E0C8010E94343197
:104450000097D9F0DC0111962C912223B1F0BC0118
:104460006F5F7F4FFB0101900020E9F73197E61B5A
:10447000F70BCA94EC2CEE1AE43008F0E3E04E2F70
:1044800050E0CE0109960E94F330F801D1A092A02D
:10449000F8E0FE1508F475C04E2D50E0B801CE01CD
:1044A00001960E94F330D8018C918E3251F411960E
:1044B0008C9111978E3211F412968C91811101C05A
:1044C000F12C8981853E11F485E08983FE013C96BB
:1044D00085E1DF011D928A95E9F7F80180A18C87BB
:1044E0006D2D792DCE014B960E94E32CD801939629
:1044F0004D915D916D917C919697CE014D960E9464
:10450000E72CB0E2FB9EC0011124A3019201280F09
:10451000391F411D511DCA01B90120E230E0AE0131
:104520004F5F5F4FF5010995882399F0CE01019601
:104530000E94E51DD82EFDE0FF9E000D111D1124E7
:10454000EF2CCF2C6894C6F88FE0982EE11034C081
:1045500081E0A0960FB6F894DEBF0FBECDBFDF910D
:10456000CF911F910F91FF90EF90DF90CF90BF9070
:10457000AF909F908F907F906F905F904F903F9003
:10458000089586E0F801DE01119601900D928A955A
:10459000E1F78D2D82958F70BFE9BD1548F0805DE4
:1045A0008F838D2D8F708A3028F4805D888789CF26
:1045B0008F59F6CF8F59FACF40E250E06FEF70E09D
:1045C000CE0101960E94FC300D50110981E0302E81
:1045D000812EE1E0E80FD8019D918D01A1E0B0E0CE
:1045E000AC0FBD1FA80FB11D9C938E5F21E030E082
:1045F0002C0F3D1F2E0F311DF90110828B3019F148
:104600008A3119F1F80131979081992311F08F3196
:1046100000F3FE14E1F0E9829C86DE861D861B8E87
:104620001C8E20E230E0AE014F5F5F4FC301B2014C
:10463000F5010995F0E24F0E511C611C711CEA94C2
:10464000032D182D83CF8EE0DDCF8CE1DBCFC98227
:10465000E3CF80E07ECF2F923F924F925F926F9296
:104660007F928F929F92AF92BF92CF92DF92EF9202
:10467000FF920F931F93CF93DF93CDB7DEB7A6972B
:104680000FB6F894DEBF0FBECDBF8C01009709F4C2
:1046900054C1DC0114968D919C911597892B59F08A
:1046A00016968D919C91892B31F08091AA0490915E
:1046B000AB04892B89F010E000E03FC11092AB04FD
:1046C0001092AA04F8CF8BE0F8018087B2C062E0B4
:1046D00070E080E090E0E9C0ECEAF4E08AE1DF011C
:1046E0001D928A95E9F71093AB040093AA04F80190
:1046F00081849284A384B484A501940189E0220F6B
:10470000331F441F551F8A95D1F72A8F3B8F4C8F3B
:104710005D8FCA01B901655F7F4F8F4F9F4F019039
:10472000F081E02D29E130E0AE014F5F5F4F099548
:10473000882321F2CE0101960E94D92C1C01CE01C2
:1047400004960E94D92C9F8F8E8FBB81B8A37E8048
:10475000CE0107960E94D92C9AA389A3CE0109966F
:104760000E94D92C6C01CE010C960E94D92C7C01A0
:10477000CE0146960E94DD2C4B015C018114910410
:10478000A104B10439F4C114D10409F497CF46014E
:10479000B12CA12CE114F10409F490CF272D30E0C5
:1047A000D7010E946C306BA37CA38DA39EA39101C3
:1047B0002150310989A19AA145E0880F991F4A9596
:1047C000E1F7820F931FB1010E941C308BA19CA1C5
:1047D000ADA1BEA1EE8DFF8D8E0F9F1FA11DB11D3E
:1047E000860F971FA11DB11DA5019401281B390B30
:1047F0004A0B5B0BCA01B901A8A12A2F30E050E097
:1048000040E00E94443069017A01B5EFCB16BFE069
:10481000DB06E104F10408F451CFE5EFCE16EFEF2B
:10482000DE06E104F10408F04ECF86E0D8011896C8
:104830008C93E4EBF4E080E1DF011D928A95E9F7C7
:104840002101712C612CA5019401C301B1010E94C9
:104850000C306093AC047093AD048093AE049093DD
:10486000AF042E8D3F8DD1010E946C308A8C9B8CC1
:10487000AC8CBD8C860E971EA81EB91E8092B0040B
:104880009092B104A092B204B092B304A701960131
:104890002E5F3F4F4F4F5F4FF8018085863009F400
:1048A00016CF64E070E080E090E00E940C306093EE
:1048B000B4047093B5048093B6049093B704309217
:1048C000B9042092B804F8A1F29DC001F39D900DA7
:1048D00011249093BB048093BA042BA13CA14DA159
:1048E0005EA1C301B2010E940C30DC01CB01880D36
:1048F000991DAA1DBB1D8093C0049093C104A09371
:10490000C204B093C30429A13AA14901B12CA12C3E
:1049100025E0880C991CAA1CBB1C2A95D1F7880E8F
:10492000991EAA1EBB1E8092BC049092BD04A09248
:10493000BE04B092BF040AEA14E0C801A6960FB6FE
:10494000F894DEBF0FBECDBFDF91CF911F910F91C5
:10495000FF90EF90DF90CF90BF90AF909F908F909F
:104960007F906F905F904F903F902F9008950097A9
:1049700019F0FC01118210820895009761F1611510
:10498000710551F0FB0120A124FD06C020917704A0
:1049900030917804232B19F090E080E008952BE209
:1049A000A9E7B4E001900D922A95E1F7909378047D
:1049B000809377041092A4041092A5041092A60488
:1049C0001092A704FB0181A192A19093A904809366
:1049D000A80487E794E00895009719F0FC0111827C
:1049E000108208952F923F924F925F926F927F9222
:1049F0008F929F92AF92BF92CF92DF92EF92FF92EF
:104A00000F931F93CF93DF9300D000D0CDB7DEB7C5
:104A10008C016B015C834B83892BE9F42FEF3FEF13
:104A20003A83298389819A810F900F900F900F907C
:104A3000DF91CF911F910F91FF90EF90DF90CF907A
:104A4000BF90AF909F908F907F906F905F904F90AE
:104A50003F902F900895672B09F38B819C81892BC0
:104A6000E9F2D8019D968D909D90AD90BC90D09725
:104A700095968D919D910D90BC91A02D9A828982E1
:104A8000B501A401EB81FC814E0F5F1F611D711DFB
:104A900084179507A607B70740F49C012819390920
:104AA0003C832B83232B09F4A7C0D801ED91FC9103
:104AB000119720883188D196ED90FC90D297E1141F
:104AC000F104F1F49396ED90FC90E114F10481F47B
:104AD000E1E0F0E0FA83E98389288A288B2811F441
:104AE0001A82198229813A8131952195310998CF0D
:104AF0002101712C612C81149104A104B104D1F520
:104B00003101B1E06B1A7108E981FA816E227F22CE
:104B10008B809C80D8014D905C90B701C2010E94AF
:104B2000B32091012619370954012815390508F4D5
:104B30005901660D771D811D911DD201ED91FC91EA
:104B40000190F081E02D9501A601099581111DC00C
:104B5000EB81FC81E819F909FA83E98363CF8418B2
:104B60009508A608B708B7010E94251F7C01892B6C
:104B700009F454CFD8018D919C9184149504A60416
:104B8000B70468F7BDCF4201C5CFCA0CDB1C2401B6
:104B90004A185B08F80185A596A5A7A5B0A98A0DB6
:104BA0009B1DA11DB11D85A796A7A7A7B0ABC301EB
:104BB0008A0D9B1D82159305A0F0B701808191811C
:104BC0000E94251F7C01892B51F4D801D2961C929A
:104BD0001E92D197EB81FC81EA0DFB1DBBCF712C9E
:104BE000612CD801D296FC92EE92D19741145104D7
:104BF00051F6EB81FC81B0CF1A82198213CF2F922C
:104C00003F924F925F926F927F928F929F92AF925C
:104C1000BF92CF92DF92EF92FF920F931F93CF93A9
:104C2000DF9300D000D0CDB7DEB79C838B836B01C0
:104C30005A834983892BC9F48FEF9FEF0F900F9010
:104C40000F900F90DF91CF911F910F91FF90EF90F8
:104C5000DF90CF90BF90AF909F908F907F906F909C
:104C60005F904F903F902F900895672B29F3898193
:104C70009A81892B09F3AB81BC819D964D915D9101
:104C80006D917C91D09795968D919D910D90BC9151
:104C9000A02D84179507A607B70770F2EB81FC815A
:104CA00080819181DC0150962D903C9001A912A940
:104CB0007101B1E0EB1AF108E422F52201151105AA
:104CC00059F503A114A101151105A9F4452B462B93
:104CD000472B09F0B1CF41E050E070E060E00E9466
:104CE000D11F8C01EB81FC8194A383A3892B19F440
:104CF00090E080E0A3CFAB81BC819D968D909D908C
:104D0000AD90BC90D0972101712C612C811491043D
:104D1000A104B10409F09CC0A980BA80EB81FC8198
:104D200060807180B801C3010E94B32091012E19E7
:104D30003F0945012A153B0508F449016E0D7F1D09
:104D4000811D911DD301ED91FC910480F581E02D31
:104D50009401A60109958823A9F1C80CD91CA818AB
:104D6000B908EB81FC8185A596A5A7A5B0A9880DFA
:104D7000991DA11DB11D85A796A7A7A7B0AB8E0C45
:104D80009F1C8214930408F472C0B8018081918141
:104D90000E94251F7C01009709F066C0A114B10490
:104DA00069F041E050E0B801AB81BC818D919C91EC
:104DB0000E94D11F8C01892B09F059C0EB81FC8125
:104DC00012AA11AAEB81FC8185A596A5A7A5B0A979
:104DD000C5A0D6A0E7A0F0A4C816D906EA06FB062F
:104DE000B0F485A396A3A7A3B0A7DF018D919D91F1
:104DF000BD010E94E12181110AC0EB81FC81A5A4C3
:104E0000B6A4AC18BD08C5A6D6A6E7A6F0AA8981A7
:104E10009A818A199B0912CF84189508A608B708A9
:104E2000B8010E94251F0097E9F481149104A104A0
:104E3000B10409F001CF41E050E0B801EB81FC8101
:104E4000808191810E94D11F8C01892B09F450CF60
:104E5000AB81BC818D919C9184149504A604B70408
:104E6000D8F65ACF8C01F4CF8C01F12CE12CAB8118
:104E7000BC81D2961C930E93D197A114B10409F072
:104E80004DCFA0CF2F923F924F925F926F927F9221
:104E90008F929F92AF92BF92CF92DF92EF92FF924A
:104EA0000F931F93CF93DF9300D0CDB7DEB71C01D4
:104EB0004A015B010097B1F480E00F900F90DF9101
:104EC000CF911F910F91FF90EF90DF90CF90BF9007
:104ED000AF909F908F907F906F905F904F903F909A
:104EE0002F900895DC0193960D911C9101151105E9
:104EF00031F481149104A104B10409F458C0D10122
:104F0000ED91FC91C088D18824013501F12CE12C70
:104F1000F10180819181C414D504E604F70408F4FA
:104F200058C001151105F9F4C701B601640D751DCE
:104F3000861D971D6150710981099109A70196018C
:104F40000E944430A901B801D1018D919C910E9429
:104F5000D11F009709F4B0CF0115110521F4F1011B
:104F600094A383A38C01D10195968D929D92AD92CD
:104F7000BC92989781149104A104B10421F49496F1
:104F80001C921E929397F10181919191BF010E9411
:104F9000E121882309F490CF81149104A104B10484
:104FA00021F5B801D1018D919C910E945F1FF10103
:104FB00085A596A5A7A5B0A988169906AA06BB0639
:104FC00030F485A696A6A7A6B0AA12AA11AA81E0D7
:104FD00074CFB8010E94251F009709F4A5CF4C1883
:104FE0005D086E087F088C0193CFC414D504E604D5
:104FF000F704E8F2F101E080F180E114F104B9F284
:1050000002301105A0F2B801C7010E94251F6C01F2
:105010008FEF9FEF9A83898330E020E0C901B801C8
:10502000660F771F881F991FD70116960D911D9146
:105030002D913C911997600F711F821F931FED9165
:10504000FC910480F581E02D22E030E0AE014F5F5D
:105050005F4F0995882309F4AACFC114D10409F43C
:10506000A6CFB601C701A1CFCF92DF92EF92FF92F8
:105070000F931F93CF93DF93EC018B01892B51F496
:1050800080E0DF91CF911F910F91FF90EF90DF9023
:10509000CF9008956115710599F3413021F14423B2
:1050A00039F0423069F7CDA0DEA0EFA0F8A41FC010
:1050B000FB01C080D180E280F3808DA19EA1AFA1D1
:1050C000B8A58C159D05AE05BF05D8F0CDA6DEA60A
:1050D000EFA6F8AA1AAA19AAF801C082D182E28220
:1050E000F38281E0CECFCDA4DEA4EFA4F8A8F8012E
:1050F00080819181A281B381C80ED91EEA1EFB1E58
:10510000DCCFB701A601CE010E9442278111DECF7C
:10511000B7CFCF93DF93009761F16115710591F0DF
:10512000FB0120A124FF0EC020911504309116042C
:10513000232B59F02091460430914704C6E4D4E073
:10514000232B29F090E080E014C0C5E1D4E0DE011B
:1051500012962BE2FB0101900D922A95E1F79983BB
:105160008883FB0181A192A19EA78DA718AA1FA6E3
:10517000CE01DF91CF910895009719F0FC011182C3
:1051800010820895FC01892B41F083A194A196A778
:1051900085A710AA17A681E0089580E008952F92B0
:1051A0003F924F925F926F927F928F929F92AF92B7
:1051B000BF92CF92DF92EF92FF920F931F93CF9304
:1051C000DF93CDB7DEB7A6970FB6F894DEBF0FBE5C
:1051D000CDBF5C010097A1F06115710589F0DC017C
:1051E0004D905C901197F201208831889F968D91A7
:1051F0009C91D0978215930528F0C5010E94C22882
:1052000080E06DC09D968D909C90FE01B39624E049
:10521000DF011D922A95E9F72BE2FB0111922A95F5
:10522000E9F77AA369A38114910451F4D20152964B
:105230002D903C90539756962D913C91221A330A0B
:105240003C018EA1811141C081010619170963013A
:10525000F12CE12C8114910409F05AC0F201668905
:105260007789808D918D6C0D7D1D8E1D9F1D1CA2DB
:105270001BA2D201ED91FC910280F381E02D9E01F1
:105280002F5D3F4F69012FE1E22E2EE1F22E20E249
:1052900030E0AE014F5F5F4F0995882301F18BA18C
:1052A0009CA1680E791E6214730458F2B401C20105
:1052B0000E94251F4C0190E080E08114910409F0C8
:1052C000BFCF8EA1882309F498CFD5019E969C92DA
:1052D0008E929D97D0967C926E929F978EA1A69665
:1052E0000FB6F894DEBF0FBECDBFDF91CF911F91F7
:1052F0000F91FF90EF90DF90CF90BF90AF909F9075
:105300008F907F906F905F904F903F902F90089577
:10531000B401C2010E94B320A6CF8F929F92AF9298
:10532000BF92CF92DF92EF92FF920F931F93CF9392
:10533000DF935C014B018A01892B09F476C061156A
:10534000710509F472C0FB018081882309F46DC0E6
:10535000452B09F46AC08F3219F4FFEF8F1A9F0AA8
:105360008BE2F80111928A95E9F780E1F80180A3B8
:10537000F401808181110EC081E0DF91CF911F91F6
:105380000F91FF90EF90DF90CF90BF90AF909F90E4
:105390008F900895B801C5010E9489286C01892B5E
:1053A00009F443C06FE270E0C4010E94033100972A
:1053B00089F0E82EE818EC012196F12CB801C6011D
:1053C0000E94CF28811112C0E401C6010E94BC28AE
:1053D0004E01CECFE40109900020E9F72197C819CA
:1053E000D909EC2EC80DD92DD11DE7CFF8010190B8
:1053F0000020E9F73197E01BF10BEE15FF05F1F600
:10540000A701B801C4010E941731892BB9F6C60162
:105410000E94BC28E80CF91CF7018081882309F45C
:10542000ABCFF80180A184FD02C080E0A6CFD12CD3
:10543000C12CCBCFCF92DF92EF92FF920F931F93AD
:10544000CF93DF938C017B01EA01892B11F490E06B
:1054500019C061157105D9F3FB0180818823B9F367
:105460002097A9F3BE01C8010E94CF288823A1F08C
:10547000BE01C7010E940E31892BA1F7C8010E940D
:10548000C22892E0892FDF91CF911F910F91FF9059
:10549000EF90DF90CF900895F801C080D1808BE22B
:1054A000FE0111928A95E9F74FE150E0B701CE0174
:1054B0000E94253160E070E0CB01C114D10439F0C5
:1054C000B8016D5D7F4FAE01C6010E940A216FA336
:1054D00078A789A79AA7672B682B692B09F4B7CF00
:1054E000BE01C6010E94E12191E08111CBCFAFCF77
:1054F0009F92AF92BF92CF92DF92EF92FF920F9363
:105500001F93CF93DF93CDB7DEB72C970FB6F894E8
:10551000DEBF0FBECDBF8C015B01892B09F45EC0DD
:105520006115710509F45AC0DB019796CD90DD90A5
:10553000ED90FC909A97C114D104E104F10409F4B0
:105540004DC085EE982ED801ED91FC910190F0812F
:10555000E02D2CE030E0AE014F5F5F4FC701B60198
:1055600009958823D9F19982D801ED91FC910480A5
:10557000F581E02D2CE030E0AE014F5F5F4FC701B9
:10558000B6010995882351F18C858F3031F4B0E252
:10559000CB0ED11CE11CF11CD6CFF50161A172A18B
:1055A00081E06115710541F0C8010E945F1F91E023
:1055B000811101C090E0892F2C960FB6F894DEBFC0
:1055C0000FBECDBFDF91CF911F910F91FF90EF9054
:1055D000DF90CF90BF90AF909F90089580E0ECCF88
:1055E000DF92EF92FF920F931F93CF93DF93CDB78C
:1055F000DEB7AB970FB6F894DEBF0FBECDBF7C0110
:105600008B01CA01E114F10481F4D12C8D2DAB96EC
:105610000FB6F894DEBF0FBECDBFDF91CF911F91C3
:105620000F91FF90EF90DF900895672B71F3009733
:1056300061F32115310521F0F9014081442329F35B
:10564000FC01408151814E155F05F9F621153105A8
:1056500009F49801AE014F5F5F4FB9010E941A2A09
:10566000882399F2F80180A189A381A192A19BA32B
:105670008AA383A194A1A5A1B6A18CA39DA3AEA347
:10568000BFA3BE016F5F7F4FC7010E94E121D82EEB
:10569000811107C0BE016F5F7F4FC7010E94782A4A
:1056A000B5CFF80112A211A2B801C7010E94782A51
:1056B000882309F4AACF8BE2FE013196D80101902C
:1056C0000D928A95E1F7DD24D394A0CF4F925F929B
:1056D0006F927F928F929F92AF92BF92CF92DF9202
:1056E000EF92FF920F931F93CF93DF935C014B01D7
:1056F000EA01892B99F4F12C8F2DDF91CF911F9125
:105700000F91FF90EF90DF90CF90BF90AF909F9060
:105710008F907F906F905F904F9008956115710505
:1057200051F3FB018081882331F3209721F3BE01DF
:10573000C5010E94CF2881113DC0F5010081118172
:1057400041E050E070E060E0C8010E94D11F6C01B0
:10575000009789F2BC01C8010E94D1208BE2FE01B2
:1057600011928A95E9F780E188A3F801A089B189AF
:105770009601225031090E946C3042885388648817
:105780007588460E571E681E791E4FA258A669A638
:105790007AA68EE2E82EE882DAA2C9A2BE01C8018A
:1057A0000E94E121F82E811110C0B601C8010E94AB
:1057B0005F1FA2CFBE01C4010E940E31892B09F0E8
:1057C000B6CFC5010E94C22896CF8FA198A5A9A5E2
:1057D000BAA58096A11DB11D8FA398A7A9A7BAA7A6
:1057E000E982F50183A194A19AA389A3BE01C8010E
:1057F0000E94E121F82E8823C1F24FE150E0B4016C
:10580000CE010E942531DAA2C9A260E070E0CB018E
:105810000115110539F0B5016D5D7F4FAE01C8016D
:105820000E940A216FA378A789A79AA7672B682BE4
:10583000692B29F4B601C8010E945F1F5CCFBE012D
:10584000C8010E94E121F82E882309F4AECFFF247D
:10585000F39452CF009791F0FC0122853385448563
:105860005585569547953795279522503109410919
:105870005109A089B1890E947B30089560E070E0F1
:10588000CB0108952F923F924F925F926F927F9239
:105890008F929F92AF92BF92CF92DF92EF92FF9240
:1058A0000F931F93CF93DF93CDB7DEB7A8970FB6B3
:1058B000F894DEBF0FBECDBF1C01892BE1F460E080
:1058C00070E0CB01A8960FB6F894DEBF0FBECDBF37
:1058D000DF91CF911F910F91FF90EF90DF90CF90CC
:1058E000BF90AF909F908F907F906F905F904F9000
:1058F0003F902F9008951AA219A280E290E09CA3F5
:105900008BA3D10116968D919D910D90BC91A02DE8
:105910008DA39EA3AFA3B8A7F10182849384A4842E
:10592000B58481149104A104B10441F429A13AA1E0
:10593000F101A089B1890E946C30C4CF9EEF492E3D
:1059400055245A94612C712CFEEF8F16FFEF9F06A1
:10595000A104B10410F424013501D101ED91FC91B1
:105960000280F381E02DCE0181966C0184EFE82E58
:105970008DE1F82E820120E230E0AE014F5F5F4FF3
:105980006DA17EA18FA198A50995882309F497CFD1
:105990008DA19EA1AFA1B8A5840D951DA61DB71D13
:1059A0008DA39EA3AFA3B8A784189508A608B7082F
:1059B000B8CFFC01808191810895FC0160817181E3
:1059C000828193810895FC01718360830895FC01B5
:1059D00040835183628373830895CDB7DEB7C45487
:1059E000D1090FB6F894DEBF0FBECDBF229A2A9A16
:1059F0003B9A439A8AB18B798AB98BB184668BB909
:105A0000549885B5876085BD8CE990E090938900B6
:105A100080938800809181008860809381008091CC
:105A20006F00826080936F00809181008560809319
:105A3000810078940E94FA068EED90E09093E7043E
:105A40008093E6041092EC041092D2041092E904C0
:105A50001092F1041092F0041092D6041092D50422
:105A60001092DF041092EF041092F2041092EE04F0
:105A70001092E8041092E0041092EA041092F804E4
:105A80001092FC041092FB048FEF8093D3041092C9
:105A90000005109201051092FF041092E20410928A
:105AA000E3041092E4041092E5041092F3041092BF
:105AB000D7041092D8041092D9041092DA041092EC
:105AC000DB041092DC041092DD041092DE041092CC
:105AD000FE041092FD041092FA041092F904109240
